:100000000CC01BC01AC019C018C017C01EC015C034
:1000100014C013C012C011C010C011241FBECFEFF6
:10002000D3E0DEBFCDBF10E0A0E6B0E001C01D927E
:10003000A236B107E1F702D029C0E2CF11BA85E0BC
:1000400082BB80E883BB7894FFCF1F920F920FB6DC
:100050000F9211248F93809160008F5F80936000D6
:10006000863270F080916100882321F0289A1092E6
:10007000610004C0289881E08093610010926000C4
:100080008F910F900FBE0F901F901895F894FFCF8F
:00000001FF
